:100000000C945E000C9486000C9486000C94860080
:100010000C9486000C9486000C9486000C94860048
:100020000C9486000C9486000C9486000C94370384
:100030000C9486000C9486000C9486000C94860028
:100040000C94ED020C9486000C94BB020C94950267
:100050000C9486000C9486000C9486000C94860008
:100060000C9486000C948600000000080002010039
:100070000003040700000000000000000000000072
:10008000250028002B0000000000240027002A0083
:10009000040404040404040402020202020203032E
:1000A0000303030301020408102040800102040836
:1000B0001020010204081020F803540711241FBE69
:1000C000CFEFD8E0DEBFCDBF11E0A0E0B1E0EEE3BE
:1000D000F4E102C005900D92A632B107D9F722E0F3
:1000E000A6E2B1E001C01D92AD31B207E1F710E028
:1000F000CDE5D0E004C02197FE010E940008CC3578
:10010000D107C9F70E9460040C94120A0C940000F5
:1001100020910502309106028217930738F420914E
:100120000102309102022115310529F410923E019D
:100130008EE391E00895820F931F08950895CF9262
:10014000DF92EF92FF920F931F93CF93DF936C0197
:100150007A018B01C0E0D0E0CE15DF0589F0D8012F
:100160006D918D01D601ED91FC910190F081E02D12
:10017000C6010995892B11F47E0102C02196ECCFAE
:10018000C701DF91CF911F910F91FF90EF90DF900A
:10019000CF900895089580E090E00895FC01538D7C
:1001A000448D252F30E0842F90E0821B930B541751
:1001B00010F0CF96089501970895FC01918D828DDE
:1001C000981761F0828DDF01A80FB11D5D968C91AB
:1001D000928D9F5F9F73928F90E008958FEF9FEFB6
:1001E0000895FC01918D828D981731F0828DE80F72
:1001F000F11D858D90E008958FEF9FEF0895FC012C
:10020000918D228D892F90E0805C9F4F821B9109F8
:100210008F73992708958FE391E00E94FF0021E0FA
:10022000892B09F420E0822F0895FC01848DDF01E1
:10023000A80FB11DA35ABF4F2C91848D90E0019659
:100240008F739927848FA689B7892C93A089B18948
:100250008C9180648C93938D848D981306C0028852
:10026000F389E02D80818F7D80830895EF92FF9246
:100270000F931F93CF93DF93EC0181E0888F9B8DC9
:100280008C8D981305C0E889F989808185FD24C08B
:10029000F62E0B8D10E00F5F1F4F0F731127E02E0E
:1002A0008C8DE8120CC00FB607FCFACFE889F989EB
:1002B000808185FFF5CFCE010E941501F1CF8B8D96
:1002C000FE01E80FF11DE35AFF4FF0820B8FEA8920
:1002D000FB898081806207C0EE89FF896083E8899D
:1002E000F98980818064808381E090E0DF91CF9103
:1002F0001F910F91FF90EF900895CF93DF93EC0142
:10030000888D8823C9F0EA89FB89808185FD05C035
:10031000A889B9898C9186FD0FC00FB607FCF5CF6F
:10032000808185FFF2CFA889B9898C9185FFEDCFB7
:10033000CE010E941501E7CFDF91CF91089580E0B3
:1003400090E0892B29F00E940B0181110C94000090
:10035000089590E0FC01E859FF4F3491FC01EC5501
:10036000FF4F2491FC01E057FF4FE491EE2309F485
:100370003BC0332339F1333091F038F43130A9F0F8
:10038000323001F584B58F7D12C0373091F03830AE
:10039000A1F03430B9F4809180008F7D03C080914A
:1003A00080008F77809380000DC084B58F7784BDE7
:1003B00009C08091B0008F7703C08091B0008F7D1D
:1003C0008093B000F0E0EE0FFF1FE458FF4FA591BF
:1003D000B4918FB7F894EC91611103C020952E234E
:1003E00001C02E2B2C938FBF08953FB7F8948091B6
:1003F0002C0190912D01A0912E01B0912F0126B5D5
:10040000A89B05C02F3F19F00196A11DB11D3FBF4C
:10041000BA2FA92F982F8827820F911DA11DB11DDA
:10042000BC01CD0142E0660F771F881F991F4A95D6
:10043000D1F70895009769F0FC0101900020E9F7D9
:100440003197AF01481B590BBC018FE391E00C942D
:100450009F0080E090E008950E94FD090F931F9394
:10046000CF93DF93EC0188819981009729F02A814D
:100470003B812617370788F48B016F5F7F4F0E94FF
:100480003309009761F0998388831B830A832C8149
:100490003D81232B11F4FC01108281E001C080E03A
:1004A000DF91CF911F910F910895EF92FF920F93DB
:1004B0001F93CF93DF93EC01198218821B821A825B
:1004C0001D821C826115710549F18B01FB010190B0
:1004D0000020E9F731977F01E61AF70AB7010E9479
:1004E0002E022881398181110DC02115310519F0A5
:1004F000C9010E949B08198218821D821C821B82DE
:100500001A820CC0FD82EC82B801C901DF91CF9143
:100510001F910F91FF90EF900C940B0ADF91CF91F8
:100520001F910F91FF90EF9008951F920F920FB6B9
:100530000F9211242F933F934F935F936F937F9369
:100540008F939F93AF93BF93EF93FF938FE391E0CC
:100550000E941501FF91EF91BF91AF919F918F91F3
:100560007F916F915F914F913F912F910F900FBEAF
:100570000F901F9018951F920F920FB60F92112493
:100580002F938F939F93EF93FF93E0914F01F091FF
:1005900050018081E0915501F091560182FD12C019
:1005A0009081809158018F5F8F732091590182173C
:1005B00051F0E0915801F0E0E15CFE4F958F80939F
:1005C000580101C08081FF91EF919F918F912F91F0
:1005D0000F900FBE0F901F9018951F920F920FB69D
:1005E0000F9211242F933F938F939F93AF93BF93B9
:1005F0008091280190912901A0912A01B0912B01AD
:100600003091270123E0230F2D3720F40196A11DFF
:10061000B11D05C026E8230F0296A11DB11D209330
:1006200027018093280190932901A0932A01B09378
:100630002B0180912C0190912D01A0912E01B09160
:100640002F010196A11DB11D80932C0190932D01C6
:10065000A0932E01B0932F01BF91AF919F918F91E5
:100660003F912F910F900FBE0F901F9018951F92E2
:100670000F920FB60F9211242F933F934F935F93D6
:100680006F937F938F939F93AF93BF93EF93FF935A
:100690008091260187FF05C010928500109284008A
:1006A0001BC020912601022E000C330B809100020A
:1006B00090E02817390784F480912601082E000C59
:1006C000990BFC01EE0FFF1F8E0F9F1FFC01E452E0
:1006D000FE4F808186FD15C0809126018F5F80933B
:1006E000260120912601022E000C330B809100027E
:1006F00090E028173907C4F4809126018C3064F10A
:1007000013C080912601082E000C990BFC01EE0FFE
:10071000FF1F8E0F9F1FFC01E452FE4F808160E09F
:100720008F730E94A901D8CF809184009091850099
:10073000049680349C4918F480E49CE905C08091BB
:10074000840090918500049690938900809388009E
:100750008FEF809326013BC020918400309185006B
:1007600080912601082E000C990BFC01EE0FFF1F53
:100770008E0F9F1FFC01E452FE4F81819281820FF8
:10078000931F909389008093880080912601082E02
:10079000000C990BFC01EE0FFF1F8E0F9F1FFC0139
:1007A000E452FE4F808186FF12C080912601082E00
:1007B000000C990BFC01EE0FFF1F8E0F9F1FFC0119
:1007C000E452FE4F808161E08F730E94A901FF9186
:1007D000EF91BF91AF919F918F917F916F915F91B9
:1007E0004F913F912F910F900FBE0F901F90189532
:1007F000109242011092410188EE93E0A0E0B0E037
:100800008093430190934401A0934501B093460126
:1008100080E191E09093400180933F0185EC90E06E
:1008200090934C0180934B0184EC90E090934E01A7
:1008300080934D0180EC90E09093500180934F01A4
:1008400081EC90E0909352018093510182EC90E012
:10085000909354018093530186EC90E0909356015D
:1008600080935501109258011092590110925A012B
:1008700010925B0180910002A7E0B2E09FEF48EB8D
:100880005BE08C3078F48C93282F30E0F901EE0F88
:10089000FF1F2E0F3F1FF901E452FE4F5283418389
:1008A0008F5F01C09C93139622E0A931B20749F7EC
:1008B0008093000260E271E081E092E00C945502C6
:1008C000CF93DF93CDB7DEB7A1970FB6F894DEBF15
:1008D0000FBECDBF789484B5826084BD84B581603D
:1008E00084BD85B5826085BD85B5816085BD8091FB
:1008F0006E00816080936E00109281008091810073
:10090000826080938100809181008160809381006A
:10091000809180008160809380008091B10084602C
:100920008093B1008091B00081608093B00080918D
:100930007A00846080937A0080917A00826080934C
:100940007A0080917A00816080937A0080917A00A9
:10095000806880937A001092C10046E051E0A7E0E1
:10096000B2E020E030E01CE002E0FA016191AF016A
:100970008C918C3008F06EC0862F90E0FC01EC5515
:10098000FF4F7491FC01E057FF4F84918823A1F041
:1009900090E0880F991FFC01EA57FF4FE590F49013
:1009A00084589F4FFC01859194918FB7F894F7017B
:1009B0009081792B70838FBF8C91E82FF0E07F01BD
:1009C000EE0CFF1CEE0DFF1DE452FE4F6F73908185
:1009D000907C692B6083F901E95FFD4F11821282DF
:1009E000612F0E94F407FCE08F9F60011124E12C2D
:1009F000F12CB7016C0D7D1DFB01EE0FFF1F6E0F7B
:100A00007F1FFB01E452FE4F908196FD17C09FEFC0
:100A1000E91AF90AECE0EE16F10459F781110EC05B
:100A20001092800000938100109285001092840043
:100A3000B19A80916F00826080936F00EC91F0E03A
:100A4000CF01880F991FE80FF91FE452FE4F8081F4
:100A50008064808313962D5F3F4F2231310509F06A
:100A600084CFE0914F01F091500182E08083E091CA
:100A70004B01F0914C011082E0914D01F0914E013B
:100A80008FEC808310925701E0915301F091540153
:100A900086E08083E0915101F09152018081806174
:100AA0008083E0915101F0915201808188608083C0
:100AB000E0915101F0915201808180688083E09142
:100AC0005101F091520180818F7D80835AE0852E03
:100AD000912CA12CB12C22242394312C8FE391E072
:100AE0000E94FF00181619060CF051C08FE391E028
:100AF0000E94DD0089831A8200910502109106028E
:100B00000F5F1F4FB80181E092E00E942E02882300
:100B100099F020910102309102028091050290919A
:100B20000602BE016F5F7F4F820F931F0E940B0A68
:100B300010930602009305020E94F5012B013C016F
:100B400032E0C32ED12CE12CF12C0E94F501DC0106
:100B5000CB0184199509A609B709883E9340A105E0
:100B6000B10598F3F8EE4F0EF3E05F1E611C711CA7
:100B7000CA94CD28CE28CF2829F0C12CD12C7601BB
:100B8000C394E3CF30923D0120923C01A7CF8091E6
:100B90003C0190913D01019709F060C1409105022F
:100BA0005091060260910102709102028FE391E080
:100BB0000E949F008EE191E00E941A0200E010E086
:100BC000C12CD12C9AE0592E8091050290910602F9
:100BD00008171907C8F4C8010E948800FC01808129
:100BE0008C3209F43EC1C8010E948800FC0180815A
:100BF0008B3509F436C1C8010E948800FC01808150
:100C00008D3509F034C12DC160E271E0CE0101964D
:100C10000E94550280910102909102020097C9F052
:100C200069817A816115710591F0409103025091BB
:100C300004022D813E814217530748F00E940B0A9F
:100C40008D819E81909306028093050218C00E94B8
:100C50009B0889819A8190930202809301028B8183
:100C60009C8190930402809303028D819E819093D6
:100C70000602809305021A8219821C821B821E8240
:100C80001D8289819A810E949B08B0E3EB2EB1E01E
:100C9000FB2E09E012E088E5282E82E0382E81E262
:100CA00091E00E941A02F70140805180052C000C4F
:100CB0006608770877FE26C0E0913F01F091400179
:100CC0000190F081E02D6DE28FE391E009952227FC
:100CD0003327A901241935094609570919A2CE015C
:100CE00081966C01CA01B901A50194010E94C30754
:100CF000605DF60162936F012115310541055105D3
:100D000089F715C0A301920119A2CE0181966C0149
:100D1000CA01B901A50194010E94C307605DF601F3
:100D200062936F01211531054105510589F7C6010F
:100D30000E941A028EE191E00E941A02F701C0801F
:100D4000D180F0E2CF16F2E0DF060CF042C0D7FC13
:100D500008C025EBC216D10434F0A4EBCA2ED12C66
:100D600002C0C12CD12CF8013197808178E8472E40
:100D7000512C481A510887FD5394D201AA0FBB1F6A
:100D8000AA0FBB1F2D01BB0F66087708F8018081F1
:100D9000B101681B710987FD7395660F771F660F98
:100DA000771FCB01770FAA0BBB0B9C01AD01241958
:100DB000350946095709D6010E94840724EB30E023
:100DC00040E050E00E945A07420E531E641E751EFA
:100DD0006201F801329780818C3080F531969081E4
:100DE000A8E8B0E0A91BB10997FDB395AA0FBB1FF6
:100DF000AA0FBB1FCA16DB0684F0F801908191018F
:100E0000291B310997FD3395220F331F220F331F02
:100E1000D6012C153D050CF4D9011297AA0FBB1F62
:100E20002FB7F89490E0FC01EE0FFF1F8E0F9F1F6D
:100E3000FC01E452FE4FB283A1832FBFF701119250
:100E400011927F010D5F1F4FFCE3EF16F1E0FF06EB
:100E500009F025CF10923D0110923C010E949F01A4
:100E60003ACE2FEFC21AD20A0F5F1F4FADCEC60186
:100E7000880F991FFC01E05DFE4F7F018081918109
:100E8000589E3001599E700C1124C8010E948800A0
:100E9000FC018081082E000C990BC097680E791E0A
:100EA000F70171826082E0CF80910102909102028D
:100EB0000C949B08052E97FB1EF400940E9471076A
:100EC00057FD07D00E94C30707FC03D04EF40C94D3
:100ED000710750954095309521953F4F4F4F5F4F8B
:100EE000089590958095709561957F4F8F4F9F4F96
:100EF00008950E94E507A59F900DB49F900DA49FB3
:100F0000800D911D11240895B7FF0C9479070E945C
:100F10007907821B930B08952F923F924F925F9215
:100F20006F927F928F929F92AF92BF92CF92DF92F9
:100F3000EF92FF920F931F93CF93DF93CDB7DEB75E
:100F4000CA1BDB0B0FB6F894DEBF0FBECDBF0994F2
:100F50002A88398848885F846E847D848C849B8449
:100F6000AA84B984C884DF80EE80FD800C811B8157
:100F7000AA81B981CE0FD11D0FB6F894DEBF0FBE86
:100F8000CDBFED010895A1E21A2EAA1BBB1BFD01E6
:100F90000DC0AA1FBB1FEE1FFF1FA217B307E40758
:100FA000F50720F0A21BB30BE40BF50B661F771FB0
:100FB000881F991F1A9469F7609570958095909590
:100FC0009B01AC01BD01CF010895A29FB001B39F69
:100FD000C001A39F700D811D1124911DB29F700D42
:100FE000811D1124911D0895991B79E004C0991F5A
:100FF000961708F0961B881F7A95C9F78095089573
:10100000EE0FFF1F0590F491E02D0994CF93DF932D
:101010008230910510F482E090E0E0911B02F091A3
:101020001C0220E030E0C0E0D0E0309711F14081B8
:10103000518148175907C0F04817590761F4828158
:101040009381209719F09B838A832BC090931C0275
:1010500080931B0226C02115310519F04217530752
:1010600018F49A01BE01DF01EF010280F381E02D47
:10107000DCCF2115310509F1281B390B243031054E
:1010800090F412968D919C9113976115710521F042
:10109000FB019383828304C090931C0280931B0204
:1010A000FD01329644C0FD01E20FF31F819391933D
:1010B000225031092D933C933AC02091190230916E
:1010C0001A02232B41F42091020130910301309345
:1010D0001A0220931902209100013091010121157B
:1010E000310541F42DB73EB74091040150910501FF
:1010F000241B350BE0911902F0911A02E217F30755
:10110000A0F42E1B3F0B2817390778F0AC014E5F77
:101110005F4F2417350748F04E0F5F1F50931A0298
:10112000409319028193919302C0E0E0F0E0CF0177
:10113000DF91CF9108950F931F93CF93DF93009783
:1011400009F48CC0FC0132971382128200911B02B9
:1011500010911C020115110581F420813181820F4B
:10116000931F2091190230911A022817390779F537
:10117000F0931A02E093190271C0D80140E050E0E8
:10118000AE17BF0750F412962D913C911397AD0105
:101190002115310509F1D901F3CF9D01DA0133831E
:1011A000228360817181860F971F8217930769F4EC
:1011B000EC0128813981260F371F2E5F3F4F318385
:1011C00020838A819B8193838283452B29F4F0932A
:1011D0001C02E0931B0242C01396FC93EE931297FD
:1011E000ED01499159919E01240F351FE217F30734
:1011F00071F480819181840F951F029611969C93C2
:101200008E938281938113969C938E931297E0E044
:10121000F0E0D80112968D919C911397009719F0E8
:10122000F8018C01F6CF8D919C9198012E5F3F4F74
:10123000820F931F2091190230911A022817390743
:1012400069F4309729F410921C0210921B0202C01C
:101250001382128210931A0200931902DF91CF9128
:101260001F910F910895A0E0B0E0E9E3F9E00C943C
:101270009007EC01009721F4CB010E940608B8C04A
:10128000FC01E60FF71F9C0122503109E217F3071A
:1012900008F4ACC0D9010D911C91119706171707DE
:1012A000B0F00530110508F49FC0C80104978617F7
:1012B000970708F499C002501109061B170B0193F8
:1012C00011936D937C93CF010E949B088DC05B01AD
:1012D000A01AB10A4C01800E911EA0911B02B09180
:1012E0001C0240E050E0E12CF12C109709F44AC0B8
:1012F000A815B905D1F56D907C901197630182E036
:10130000C80ED11CCA14DB0480F1A3014A195B0981
:101310006A0182E0C80ED11C1296BC9012971396F7
:10132000AC91B5E0CB16D10440F0B282A3835183D7
:101330004083D9016D937C930AC00E5F1F4FC30198
:10134000800F911FF90191838083EB2DFA2FE11417
:10135000F10431F0D7011396FC93EE93129744C039
:10136000F0931C02E0931B023FC08D919C9111975A
:101370004817590708F4AC017D0112960D90BC91F5
:10138000A02DB3CF8091190290911A02881599056A
:10139000E1F446175707C8F48091000190910101CC
:1013A000009741F48DB79EB740910401509105011B
:1013B000841B950BE817F907C8F4F0931A02E09321
:1013C0001902F901718360830FC0CB010E940608E6
:1013D0007C01009759F0A801BE010E94020ACE01CB
:1013E0000E949B08C70104C0CE0102C080E090E0CB
:1013F000CDB7DEB7EEE00C94AC0781E090E0F89456
:101400000C94120AFB01DC0102C001900D924150C4
:101410005040D8F70895FB01DC0101900D920020A7
:10142000E1F7089510E0CDE5D0E004C0FE010E9490
:0E14300000082196CE35D107C9F7F894FFCFFA
:10143E0000001D0280000A10110E0F0700000000B0
:10144E0036019F00CE007D01FF00DD00F1000D0A88
:06145E000050696E000061
:00000001FF
